{
  "contractName": "GSVContract",
  "abi": [
    {
      "inputs": [
        {
          "internalType": "contract GSVToken",
          "name": "_token",
          "type": "address"
        },
        {
          "internalType": "string",
          "name": "_name",
          "type": "string"
        },
        {
          "internalType": "uint256",
          "name": "_tokenTotalSupply",
          "type": "uint256"
        }
      ],
      "stateMutability": "nonpayable",
      "type": "constructor"
    },
    {
      "anonymous": false,
      "inputs": [
        {
          "indexed": true,
          "internalType": "address",
          "name": "previousOwner",
          "type": "address"
        },
        {
          "indexed": true,
          "internalType": "address",
          "name": "newOwner",
          "type": "address"
        }
      ],
      "name": "OwnershipTransferred",
      "type": "event"
    },
    {
      "anonymous": false,
      "inputs": [
        {
          "indexed": true,
          "internalType": "address",
          "name": "user",
          "type": "address"
        },
        {
          "indexed": false,
          "internalType": "uint256",
          "name": "amount",
          "type": "uint256"
        },
        {
          "indexed": false,
          "internalType": "uint256",
          "name": "index",
          "type": "uint256"
        },
        {
          "indexed": false,
          "internalType": "uint256",
          "name": "timestamp",
          "type": "uint256"
        }
      ],
      "name": "Staked",
      "type": "event"
    },
    {
      "inputs": [],
      "name": "firstPoolAdmin",
      "outputs": [
        {
          "internalType": "address",
          "name": "",
          "type": "address"
        }
      ],
      "stateMutability": "view",
      "type": "function",
      "constant": true
    },
    {
      "inputs": [],
      "name": "name",
      "outputs": [
        {
          "internalType": "string",
          "name": "",
          "type": "string"
        }
      ],
      "stateMutability": "view",
      "type": "function",
      "constant": true
    },
    {
      "inputs": [],
      "name": "owner",
      "outputs": [
        {
          "internalType": "address",
          "name": "",
          "type": "address"
        }
      ],
      "stateMutability": "view",
      "type": "function",
      "constant": true
    },
    {
      "inputs": [],
      "name": "poolOfBDAndPartnership",
      "outputs": [
        {
          "internalType": "uint256",
          "name": "",
          "type": "uint256"
        }
      ],
      "stateMutability": "view",
      "type": "function",
      "constant": true
    },
    {
      "inputs": [],
      "name": "poolOfCompanyReserve",
      "outputs": [
        {
          "internalType": "uint256",
          "name": "",
          "type": "uint256"
        }
      ],
      "stateMutability": "view",
      "type": "function",
      "constant": true
    },
    {
      "inputs": [],
      "name": "poolOfEcosystem",
      "outputs": [
        {
          "internalType": "uint256",
          "name": "",
          "type": "uint256"
        }
      ],
      "stateMutability": "view",
      "type": "function",
      "constant": true
    },
    {
      "inputs": [],
      "name": "poolOfLiquidityAndListing",
      "outputs": [
        {
          "internalType": "uint256",
          "name": "",
          "type": "uint256"
        }
      ],
      "stateMutability": "view",
      "type": "function",
      "constant": true
    },
    {
      "inputs": [],
      "name": "poolOfMarketing",
      "outputs": [
        {
          "internalType": "uint256",
          "name": "",
          "type": "uint256"
        }
      ],
      "stateMutability": "view",
      "type": "function",
      "constant": true
    },
    {
      "inputs": [],
      "name": "poolOfPrivateSale",
      "outputs": [
        {
          "internalType": "uint256",
          "name": "",
          "type": "uint256"
        }
      ],
      "stateMutability": "view",
      "type": "function",
      "constant": true
    },
    {
      "inputs": [],
      "name": "poolOfPublicSale",
      "outputs": [
        {
          "internalType": "uint256",
          "name": "",
          "type": "uint256"
        }
      ],
      "stateMutability": "view",
      "type": "function",
      "constant": true
    },
    {
      "inputs": [],
      "name": "poolOfSeedSale",
      "outputs": [
        {
          "internalType": "uint256",
          "name": "",
          "type": "uint256"
        }
      ],
      "stateMutability": "view",
      "type": "function",
      "constant": true
    },
    {
      "inputs": [],
      "name": "poolOfTeam",
      "outputs": [
        {
          "internalType": "uint256",
          "name": "",
          "type": "uint256"
        }
      ],
      "stateMutability": "view",
      "type": "function",
      "constant": true
    },
    {
      "inputs": [],
      "name": "poolTotalSupply",
      "outputs": [
        {
          "internalType": "uint256",
          "name": "",
          "type": "uint256"
        }
      ],
      "stateMutability": "view",
      "type": "function",
      "constant": true
    },
    {
      "inputs": [],
      "name": "renounceOwnership",
      "outputs": [],
      "stateMutability": "nonpayable",
      "type": "function"
    },
    {
      "inputs": [],
      "name": "secPoolAdmin",
      "outputs": [
        {
          "internalType": "address",
          "name": "",
          "type": "address"
        }
      ],
      "stateMutability": "view",
      "type": "function",
      "constant": true
    },
    {
      "inputs": [
        {
          "internalType": "uint256",
          "name": "",
          "type": "uint256"
        }
      ],
      "name": "stakeholders",
      "outputs": [
        {
          "internalType": "address",
          "name": "user",
          "type": "address"
        }
      ],
      "stateMutability": "view",
      "type": "function",
      "constant": true
    },
    {
      "inputs": [
        {
          "internalType": "uint256",
          "name": "",
          "type": "uint256"
        }
      ],
      "name": "stakers",
      "outputs": [
        {
          "internalType": "address",
          "name": "",
          "type": "address"
        }
      ],
      "stateMutability": "view",
      "type": "function",
      "constant": true
    },
    {
      "inputs": [
        {
          "internalType": "address",
          "name": "",
          "type": "address"
        }
      ],
      "name": "stakes",
      "outputs": [
        {
          "internalType": "uint256",
          "name": "",
          "type": "uint256"
        }
      ],
      "stateMutability": "view",
      "type": "function",
      "constant": true
    },
    {
      "inputs": [],
      "name": "token",
      "outputs": [
        {
          "internalType": "contract GSVToken",
          "name": "",
          "type": "address"
        }
      ],
      "stateMutability": "view",
      "type": "function",
      "constant": true
    },
    {
      "inputs": [
        {
          "internalType": "address",
          "name": "newOwner",
          "type": "address"
        }
      ],
      "name": "transferOwnership",
      "outputs": [],
      "stateMutability": "nonpayable",
      "type": "function"
    },
    {
      "inputs": [],
      "name": "trdPoolAdmin",
      "outputs": [
        {
          "internalType": "address",
          "name": "",
          "type": "address"
        }
      ],
      "stateMutability": "view",
      "type": "function",
      "constant": true
    },
    {
      "inputs": [],
      "name": "getBalance",
      "outputs": [
        {
          "internalType": "uint256",
          "name": "",
          "type": "uint256"
        }
      ],
      "stateMutability": "view",
      "type": "function",
      "constant": true
    },
    {
      "inputs": [],
      "name": "userHistoryOfFunds",
      "outputs": [
        {
          "components": [
            {
              "internalType": "address",
              "name": "user",
              "type": "address"
            },
            {
              "components": [
                {
                  "internalType": "uint256",
                  "name": "amount",
                  "type": "uint256"
                },
                {
                  "internalType": "uint256",
                  "name": "since",
                  "type": "uint256"
                },
                {
                  "internalType": "uint32",
                  "name": "timeStaked",
                  "type": "uint32"
                },
                {
                  "internalType": "address",
                  "name": "user",
                  "type": "address"
                },
                {
                  "internalType": "bool",
                  "name": "claimable",
                  "type": "bool"
                },
                {
                  "internalType": "address",
                  "name": "poolAdminAddr",
                  "type": "address"
                },
                {
                  "internalType": "string",
                  "name": "poolName",
                  "type": "string"
                }
              ],
              "internalType": "struct GSVContract.Stake[]",
              "name": "address_stakes",
              "type": "tuple[]"
            }
          ],
          "internalType": "struct GSVContract.Stakeholder",
          "name": "",
          "type": "tuple"
        }
      ],
      "stateMutability": "view",
      "type": "function",
      "constant": true
    },
    {
      "inputs": [],
      "name": "exchangeHistoryOfFunds",
      "outputs": [
        {
          "components": [
            {
              "internalType": "address",
              "name": "user",
              "type": "address"
            },
            {
              "components": [
                {
                  "internalType": "uint256",
                  "name": "amount",
                  "type": "uint256"
                },
                {
                  "internalType": "uint256",
                  "name": "since",
                  "type": "uint256"
                },
                {
                  "internalType": "uint32",
                  "name": "timeStaked",
                  "type": "uint32"
                },
                {
                  "internalType": "address",
                  "name": "user",
                  "type": "address"
                },
                {
                  "internalType": "bool",
                  "name": "claimable",
                  "type": "bool"
                },
                {
                  "internalType": "address",
                  "name": "poolAdminAddr",
                  "type": "address"
                },
                {
                  "internalType": "string",
                  "name": "poolName",
                  "type": "string"
                }
              ],
              "internalType": "struct GSVContract.Stake[]",
              "name": "address_stakes",
              "type": "tuple[]"
            }
          ],
          "internalType": "struct GSVContract.Stakeholder[]",
          "name": "",
          "type": "tuple[]"
        }
      ],
      "stateMutability": "view",
      "type": "function",
      "constant": true
    },
    {
      "inputs": [
        {
          "internalType": "uint256",
          "name": "_amount",
          "type": "uint256"
        },
        {
          "internalType": "address",
          "name": "_recipientAddress",
          "type": "address"
        },
        {
          "internalType": "uint32",
          "name": "_timeStaked",
          "type": "uint32"
        },
        {
          "internalType": "uint8",
          "name": "_whichPool",
          "type": "uint8"
        }
      ],
      "name": "transferFunds",
      "outputs": [],
      "stateMutability": "nonpayable",
      "type": "function"
    },
    {
      "inputs": [
        {
          "internalType": "uint256",
          "name": "_amount",
          "type": "uint256"
        },
        {
          "internalType": "uint8",
          "name": "_fromWhichPool",
          "type": "uint8"
        },
        {
          "internalType": "uint8",
          "name": "_toWhichPool",
          "type": "uint8"
        }
      ],
      "name": "addLiquidyFromPoolToPool",
      "outputs": [],
      "stateMutability": "nonpayable",
      "type": "function"
    },
    {
      "inputs": [
        {
          "internalType": "address",
          "name": "_newOwnerAddress",
          "type": "address"
        },
        {
          "internalType": "uint256",
          "name": "_whichOwnerToChange",
          "type": "uint256"
        }
      ],
      "name": "changePoolAdmin",
      "outputs": [],
      "stateMutability": "nonpayable",
      "type": "function"
    }
  ],
  "bytecode": "0x608060405273df99f983073112a7e4d582cbf77c690d9ea7f39a600e60006101000a81548173ffffffffffffffffffffffffffffffffffffffff021916908373ffffffffffffffffffffffffffffffffffffffff160217905550733997d3accebad60ebae81b2191f81f9055b3b420600f60006101000a81548173ffffffffffffffffffffffffffffffffffffffff021916908373ffffffffffffffffffffffffffffffffffffffff16021790555073d775ee0a9dd3298d4ecd5993be56ea9ab31909e6601060006101000a81548173ffffffffffffffffffffffffffffffffffffffff021916908373ffffffffffffffffffffffffffffffffffffffff1602179055503480156200011057600080fd5b50604051620034fb380380620034fb833981810160405281019062000136919062000576565b620001566200014a6200035a60201b60201c565b6200036260201b60201c565b60136001816001815401808255809150500390600052602060002090505082600160006101000a81548173ffffffffffffffffffffffffffffffffffffffff021916908373ffffffffffffffffffffffffffffffffffffffff1602179055508160029080519060200190620001cd92919062000426565b508060048190555033600360006101000a81548173ffffffffffffffffffffffffffffffffffffffff021916908373ffffffffffffffffffffffffffffffffffffffff16021790555060646028826200022791906200067c565b62000233919062000644565b6005819055506064600a826200024a91906200067c565b62000256919062000644565b60068190555060646005826200026d91906200067c565b62000279919062000644565b60078190555060646005826200029091906200067c565b6200029c919062000644565b6008819055506064600582620002b391906200067c565b620002bf919062000644565b6009819055506064600f82620002d691906200067c565b620002e2919062000644565b600a819055506064600a82620002f991906200067c565b62000305919062000644565b600b8190555060646005826200031c91906200067c565b62000328919062000644565b600c8190555060646005826200033f91906200067c565b6200034b919062000644565b600d81905550505050620008d2565b600033905090565b60008060009054906101000a900473ffffffffffffffffffffffffffffffffffffffff169050816000806101000a81548173ffffffffffffffffffffffffffffffffffffffff021916908373ffffffffffffffffffffffffffffffffffffffff1602179055508173ffffffffffffffffffffffffffffffffffffffff168173ffffffffffffffffffffffffffffffffffffffff167f8be0079c531659141344cd1fd0a4f28419497f9722a3daafe3b4186f6b6457e060405160405180910390a35050565b828054620004349062000765565b90600052602060002090601f016020900481019282620004585760008555620004a4565b82601f106200047357805160ff1916838001178555620004a4565b82800160010185558215620004a4579182015b82811115620004a357825182559160200191906001019062000486565b5b509050620004b39190620004b7565b5090565b5b80821115620004d2576000816000905550600101620004b8565b5090565b6000620004ed620004e7846200060e565b620005e5565b9050828152602081018484840111156200050657600080fd5b620005138482856200072f565b509392505050565b6000815190506200052c816200089e565b92915050565b600082601f8301126200054457600080fd5b815162000556848260208601620004d6565b91505092915050565b6000815190506200057081620008b8565b92915050565b6000806000606084860312156200058c57600080fd5b60006200059c868287016200051b565b935050602084015167ffffffffffffffff811115620005ba57600080fd5b620005c88682870162000532565b9250506040620005db868287016200055f565b9150509250925092565b6000620005f162000604565b9050620005ff82826200079b565b919050565b6000604051905090565b600067ffffffffffffffff8211156200062c576200062b6200085e565b5b62000637826200088d565b9050602081019050919050565b6000620006518262000725565b91506200065e8362000725565b92508262000671576200067062000800565b5b828204905092915050565b6000620006898262000725565b9150620006968362000725565b9250817fffffffffffffffffffffffffffffffffffffffffffffffffffffffffffffffff0483118215151615620006d257620006d1620007d1565b5b828202905092915050565b6000620006ea8262000705565b9050919050565b6000620006fe82620006dd565b9050919050565b600073ffffffffffffffffffffffffffffffffffffffff82169050919050565b6000819050919050565b60005b838110156200074f57808201518184015260208101905062000732565b838111156200075f576000848401525b50505050565b600060028204905060018216806200077e57607f821691505b602082108114156200079557620007946200082f565b5b50919050565b620007a6826200088d565b810181811067ffffffffffffffff82111715620007c857620007c76200085e565b5b80604052505050565b7f4e487b7100000000000000000000000000000000000000000000000000000000600052601160045260246000fd5b7f4e487b7100000000000000000000000000000000000000000000000000000000600052601260045260246000fd5b7f4e487b7100000000000000000000000000000000000000000000000000000000600052602260045260246000fd5b7f4e487b7100000000000000000000000000000000000000000000000000000000600052604160045260246000fd5b6000601f19601f8301169050919050565b620008a981620006f1565b8114620008b557600080fd5b50565b620008c38162000725565b8114620008cf57600080fd5b50565b612c1980620008e26000396000f3fe608060405234801561001057600080fd5b50600436106101a95760003560e01c80637b3e2fbe116100f9578063d410ede211610097578063f934d84b11610071578063f934d84b14610468578063fc0c546a14610486578063fd5e6dd1146104a4578063fd996ec3146104d4576101a9565b8063d410ede214610410578063d7583a611461042e578063f2fde38b1461044c576101a9565b8063aea012d8116100d3578063aea012d81461039a578063af14907d146103b8578063b2e35745146103d6578063b7f54092146103f2576101a9565b80637b3e2fbe146103405780638da5cb5b1461035e5780639f0118961461037c576101a9565b8063447d48c71161016657806364f032491161014057806364f03249146102dc5780636f511ec8146102fa578063715018a6146103185780637601e79414610322576101a9565b8063447d48c7146102825780634a83c35a146102a0578063644ed83b146102be576101a9565b806306fdde03146101ae57806312065fe0146101cc57806316934fc4146101ea5780631d6b8b721461021a578063210fcfb61461024a57806341bf4afc14610266575b600080fd5b6101b66104f2565b6040516101c391906125bd565b60405180910390f35b6101d4610580565b6040516101e191906126e1565b60405180910390f35b61020460048036038101906101ff9190611fdb565b610588565b60405161021191906126e1565b60405180910390f35b610234600480360381019061022f9190612069565b6105a0565b604051610241919061253c565b60405180910390f35b610264600480360381019061025f9190612004565b6105ee565b005b610280600480360381019061027b91906120f5565b610884565b005b61028a610acb565b60405161029791906126e1565b60405180910390f35b6102a8610ad1565b6040516102b591906126e1565b60405180910390f35b6102c6610ad7565b6040516102d391906126e1565b60405180910390f35b6102e4610add565b6040516102f191906126e1565b60405180910390f35b610302610ae3565b60405161030f91906126e1565b60405180910390f35b610320610ae9565b005b61032a610b71565b60405161033791906126e1565b60405180910390f35b610348610b77565b6040516103559190612580565b60405180910390f35b610366610e1e565b604051610373919061253c565b60405180910390f35b610384610e47565b604051610391919061253c565b60405180910390f35b6103a2610e6d565b6040516103af91906126bf565b60405180910390f35b6103c061115a565b6040516103cd91906126e1565b60405180910390f35b6103f060048036038101906103eb9190612092565b611160565b005b6103fa611713565b60405161040791906126e1565b60405180910390f35b610418611719565b60405161042591906126e1565b60405180910390f35b61043661171f565b604051610443919061253c565b60405180910390f35b61046660048036038101906104619190611fdb565b611745565b005b61047061183d565b60405161047d919061253c565b60405180910390f35b61048e611863565b60405161049b91906125a2565b60405180910390f35b6104be60048036038101906104b99190612069565b611889565b6040516104cb919061253c565b60405180910390f35b6104dc6118c8565b6040516104e991906126e1565b60405180910390f35b600280546104ff90612918565b80601f016020809104026020016040519081016040528092919081815260200182805461052b90612918565b80156105785780601f1061054d57610100808354040283529160200191610578565b820191906000526020600020905b81548152906001019060200180831161055b57829003601f168201915b505050505081565b600047905090565b60116020528060005260406000206000915090505481565b601381815481106105b057600080fd5b90600052602060002090600202016000915090508060000160009054906101000a900473ffffffffffffffffffffffffffffffffffffffff16905081565b6000600e60009054906101000a900473ffffffffffffffffffffffffffffffffffffffff1673ffffffffffffffffffffffffffffffffffffffff163373ffffffffffffffffffffffffffffffffffffffff1614806106995750600f60009054906101000a900473ffffffffffffffffffffffffffffffffffffffff1673ffffffffffffffffffffffffffffffffffffffff163373ffffffffffffffffffffffffffffffffffffffff16145b806106f15750601060009054906101000a900473ffffffffffffffffffffffffffffffffffffffff1673ffffffffffffffffffffffffffffffffffffffff163373ffffffffffffffffffffffffffffffffffffffff16145b156106ff5760019050610704565b600090505b600115158115151461074b576040517f08c379a0000000000000000000000000000000000000000000000000000000008152600401610742906125df565b60405180910390fd5b600182141561079a5782600e60006101000a81548173ffffffffffffffffffffffffffffffffffffffff021916908373ffffffffffffffffffffffffffffffffffffffff16021790555061087f565b60028214156107e95782600f60006101000a81548173ffffffffffffffffffffffffffffffffffffffff021916908373ffffffffffffffffffffffffffffffffffffffff16021790555061087e565b60038214156108385782601060006101000a81548173ffffffffffffffffffffffffffffffffffffffff021916908373ffffffffffffffffffffffffffffffffffffffff16021790555061087d565b600182141561087c576040517f08c379a00000000000000000000000000000000000000000000000000000000081526004016108739061263f565b60405180910390fd5b5b5b5b505050565b600083116108c7576040517f08c379a00000000000000000000000000000000000000000000000000000000081526004016108be9061269f565b60405180910390fd5b600060606108d4846118ce565b8092508193505050600060606108e9856118ce565b80925081935050506000600e60009054906101000a900473ffffffffffffffffffffffffffffffffffffffff1673ffffffffffffffffffffffffffffffffffffffff163373ffffffffffffffffffffffffffffffffffffffff16148061099c5750600f60009054906101000a900473ffffffffffffffffffffffffffffffffffffffff1673ffffffffffffffffffffffffffffffffffffffff163373ffffffffffffffffffffffffffffffffffffffff16145b806109f45750601060009054906101000a900473ffffffffffffffffffffffffffffffffffffffff1673ffffffffffffffffffffffffffffffffffffffff163373ffffffffffffffffffffffffffffffffffffffff16145b15610a025760019050610a07565b600090505b6001151581151514610a4e576040517f08c379a0000000000000000000000000000000000000000000000000000000008152600401610a45906125df565b60405180910390fd5b87851015610a91576040517f08c379a0000000000000000000000000000000000000000000000000000000008152600401610a889061265f565b60405180910390fd5b8785610a9d9190612828565b94508783610aab91906127d2565b9250610ab78786611be6565b610ac18684611be6565b5050505050505050565b60045481565b600a5481565b60055481565b600b5481565b60065481565b610af1611cc6565b73ffffffffffffffffffffffffffffffffffffffff16610b0f610e1e565b73ffffffffffffffffffffffffffffffffffffffff1614610b65576040517f08c379a0000000000000000000000000000000000000000000000000000000008152600401610b5c9061267f565b60405180910390fd5b610b6f6000611cce565b565b600d5481565b60606013805480602002602001604051908101604052809291908181526020016000905b82821015610e1557838290600052602060002090600202016040518060400160405290816000820160009054906101000a900473ffffffffffffffffffffffffffffffffffffffff1673ffffffffffffffffffffffffffffffffffffffff1673ffffffffffffffffffffffffffffffffffffffff16815260200160018201805480602002602001604051908101604052809291908181526020016000905b82821015610dfe57838290600052602060002090600502016040518060e001604052908160008201548152602001600182015481526020016002820160009054906101000a900463ffffffff1663ffffffff1663ffffffff1681526020016002820160049054906101000a900473ffffffffffffffffffffffffffffffffffffffff1673ffffffffffffffffffffffffffffffffffffffff1673ffffffffffffffffffffffffffffffffffffffff1681526020016002820160189054906101000a900460ff161515151581526020016003820160009054906101000a900473ffffffffffffffffffffffffffffffffffffffff1673ffffffffffffffffffffffffffffffffffffffff1673ffffffffffffffffffffffffffffffffffffffff168152602001600482018054610d6d90612918565b80601f0160208091040260200160405190810160405280929190818152602001828054610d9990612918565b8015610de65780601f10610dbb57610100808354040283529160200191610de6565b820191906000526020600020905b815481529060010190602001808311610dc957829003601f168201915b50505050508152505081526020019060010190610c39565b505050508152505081526020019060010190610b9b565b50505050905090565b60008060009054906101000a900473ffffffffffffffffffffffffffffffffffffffff16905090565b600e60009054906101000a900473ffffffffffffffffffffffffffffffffffffffff1681565b610e75611e9f565b6000601160003373ffffffffffffffffffffffffffffffffffffffff1673ffffffffffffffffffffffffffffffffffffffff16815260200190815260200160002054905060138181548110610ef3577f4e487b7100000000000000000000000000000000000000000000000000000000600052603260045260246000fd5b90600052602060002090600202016040518060400160405290816000820160009054906101000a900473ffffffffffffffffffffffffffffffffffffffff1673ffffffffffffffffffffffffffffffffffffffff1673ffffffffffffffffffffffffffffffffffffffff16815260200160018201805480602002602001604051908101604052809291908181526020016000905b8282101561114c57838290600052602060002090600502016040518060e001604052908160008201548152602001600182015481526020016002820160009054906101000a900463ffffffff1663ffffffff1663ffffffff1681526020016002820160049054906101000a900473ffffffffffffffffffffffffffffffffffffffff1673ffffffffffffffffffffffffffffffffffffffff1673ffffffffffffffffffffffffffffffffffffffff1681526020016002820160189054906101000a900460ff161515151581526020016003820160009054906101000a900473ffffffffffffffffffffffffffffffffffffffff1673ffffffffffffffffffffffffffffffffffffffff1673ffffffffffffffffffffffffffffffffffffffff1681526020016004820180546110bb90612918565b80601f01602080910402602001604051908101604052809291908181526020018280546110e790612918565b80156111345780601f1061110957610100808354040283529160200191611134565b820191906000526020600020905b81548152906001019060200180831161111757829003601f168201915b50505050508152505081526020019060010190610f87565b505050508152505091505090565b60085481565b600084116111a3576040517f08c379a000000000000000000000000000000000000000000000000000000000815260040161119a9061269f565b60405180910390fd5b600060606111b0836118ce565b80925081935050506000600e60009054906101000a900473ffffffffffffffffffffffffffffffffffffffff1673ffffffffffffffffffffffffffffffffffffffff163373ffffffffffffffffffffffffffffffffffffffff16141561121957600190506112de565b600f60009054906101000a900473ffffffffffffffffffffffffffffffffffffffff1673ffffffffffffffffffffffffffffffffffffffff163373ffffffffffffffffffffffffffffffffffffffff16141561127857600190506112dd565b601060009054906101000a900473ffffffffffffffffffffffffffffffffffffffff1673ffffffffffffffffffffffffffffffffffffffff163373ffffffffffffffffffffffffffffffffffffffff1614156112d757600190506112dc565b600090505b5b5b6001151581151514611325576040517f08c379a000000000000000000000000000000000000000000000000000000000815260040161131c906125df565b60405180910390fd5b60008390508781101561136d576040517f08c379a00000000000000000000000000000000000000000000000000000000081526004016113649061265f565b60405180910390fd5b6000601160003373ffffffffffffffffffffffffffffffffffffffff1673ffffffffffffffffffffffffffffffffffffffff16815260200190815260200160002054905060008114156113c6576113c333611d92565b90505b88856113d29190612828565b94506113de8686611be6565b6000600160009054906101000a900473ffffffffffffffffffffffffffffffffffffffff1673ffffffffffffffffffffffffffffffffffffffff1663a9059cbb8a8c6040518363ffffffff1660e01b815260040161143d929190612557565b602060405180830381600087803b15801561145757600080fd5b505af115801561146b573d6000803e3d6000fd5b505050506040513d601f19601f8201168201806040525081019061148f9190612040565b9050806114d1576040517f08c379a00000000000000000000000000000000000000000000000000000000081526004016114c8906125ff565b60405180910390fd5b6013828154811061150b577f4e487b7100000000000000000000000000000000000000000000000000000000600052603260045260246000fd5b90600052602060002090600202016001016040518060e001604052808c81526020014281526020018a63ffffffff1681526020018b73ffffffffffffffffffffffffffffffffffffffff1681526020016001151581526020013373ffffffffffffffffffffffffffffffffffffffff168152602001878152509080600181540180825580915050600190039060005260206000209060050201600090919091909150600082015181600001556020820151816001015560408201518160020160006101000a81548163ffffffff021916908363ffffffff16021790555060608201518160020160046101000a81548173ffffffffffffffffffffffffffffffffffffffff021916908373ffffffffffffffffffffffffffffffffffffffff16021790555060808201518160020160186101000a81548160ff02191690831515021790555060a08201518160030160006101000a81548173ffffffffffffffffffffffffffffffffffffffff021916908373ffffffffffffffffffffffffffffffffffffffff16021790555060c08201518160040190805190602001906116b2929190611ecf565b5050503373ffffffffffffffffffffffffffffffffffffffff167fb4caaf29adda3eefee3ad552a8e85058589bf834c7466cae4ee58787f70589ed8b84426040516116ff939291906126fc565b60405180910390a250505050505050505050565b600c5481565b60095481565b601060009054906101000a900473ffffffffffffffffffffffffffffffffffffffff1681565b61174d611cc6565b73ffffffffffffffffffffffffffffffffffffffff1661176b610e1e565b73ffffffffffffffffffffffffffffffffffffffff16146117c1576040517f08c379a00000000000000000000000000000000000000000000000000000000081526004016117b89061267f565b60405180910390fd5b600073ffffffffffffffffffffffffffffffffffffffff168173ffffffffffffffffffffffffffffffffffffffff161415611831576040517f08c379a00000000000000000000000000000000000000000000000000000000081526004016118289061261f565b60405180910390fd5b61183a81611cce565b50565b600f60009054906101000a900473ffffffffffffffffffffffffffffffffffffffff1681565b600160009054906101000a900473ffffffffffffffffffffffffffffffffffffffff1681565b6012818154811061189957600080fd5b906000526020600020016000915054906101000a900473ffffffffffffffffffffffffffffffffffffffff1681565b60075481565b600060606000606060018560ff1614156119245760055491506040518060400160405280600981526020017f45636f73797374656d00000000000000000000000000000000000000000000008152509050611bd9565b60028560ff1614156119725760065491506040518060400160405280600e81526020017f436f6d70616e79526573657276650000000000000000000000000000000000008152509050611bd8565b60038560ff1614156119c05760075491506040518060400160405280600481526020017f5465616d000000000000000000000000000000000000000000000000000000008152509050611bd7565b60048560ff161415611a0e5760085491506040518060400160405280601081526020017f4244416e64506172746e657273686970000000000000000000000000000000008152509050611bd6565b60058560ff161415611a5c5760095491506040518060400160405280600981526020017f4d61726b6574696e6700000000000000000000000000000000000000000000008152509050611bd5565b60068560ff161415611aaa57600a5491506040518060400160405280601381526020017f4c6971756964697479416e644c697374696e67000000000000000000000000008152509050611bd4565b60078560ff161415611af857600b5491506040518060400160405280600881526020017f5365656453616c650000000000000000000000000000000000000000000000008152509050611bd3565b60088560ff161415611b4657600c5491506040518060400160405280600b81526020017f5072697661746553616c650000000000000000000000000000000000000000008152509050611bd2565b60098560ff161415611b9457600d5491506040518060400160405280600a81526020017f5075626c696353616c65000000000000000000000000000000000000000000008152509050611bd1565b600091506040518060400160405280600681526020017f4e6f506f6f6c000000000000000000000000000000000000000000000000000081525090505b5b5b5b5b5b5b5b5b8181935093505050915091565b60018260ff161415611bfe5780600581905550611cc2565b60028260ff161415611c165780600681905550611cc1565b60038260ff161415611c2e5780600781905550611cc0565b60048260ff161415611c465780600881905550611cbf565b60058260ff161415611c5e5780600981905550611cbe565b60068260ff161415611c765780600a81905550611cbd565b60078260ff161415611c8e5780600b81905550611cbc565b60088260ff161415611ca65780600c81905550611cbb565b60098260ff161415611cba5780600d819055505b5b5b5b5b5b5b5b5b5050565b600033905090565b60008060009054906101000a900473ffffffffffffffffffffffffffffffffffffffff169050816000806101000a81548173ffffffffffffffffffffffffffffffffffffffff021916908373ffffffffffffffffffffffffffffffffffffffff1602179055508173ffffffffffffffffffffffffffffffffffffffff168173ffffffffffffffffffffffffffffffffffffffff167f8be0079c531659141344cd1fd0a4f28419497f9722a3daafe3b4186f6b6457e060405160405180910390a35050565b600060136001816001815401808255809150500390600052602060002090505060006001601380549050611dc69190612828565b90508260138281548110611e03577f4e487b7100000000000000000000000000000000000000000000000000000000600052603260045260246000fd5b906000526020600020906002020160000160006101000a81548173ffffffffffffffffffffffffffffffffffffffff021916908373ffffffffffffffffffffffffffffffffffffffff16021790555080601160008573ffffffffffffffffffffffffffffffffffffffff1673ffffffffffffffffffffffffffffffffffffffff1681526020019081526020016000208190555080915050919050565b6040518060400160405280600073ffffffffffffffffffffffffffffffffffffffff168152602001606081525090565b828054611edb90612918565b90600052602060002090601f016020900481019282611efd5760008555611f44565b82601f10611f1657805160ff1916838001178555611f44565b82800160010185558215611f44579182015b82811115611f43578251825591602001919060010190611f28565b5b509050611f519190611f55565b5090565b5b80821115611f6e576000816000905550600101611f56565b5090565b600081359050611f8181612b70565b92915050565b600081519050611f9681612b87565b92915050565b600081359050611fab81612b9e565b92915050565b600081359050611fc081612bb5565b92915050565b600081359050611fd581612bcc565b92915050565b600060208284031215611fed57600080fd5b6000611ffb84828501611f72565b91505092915050565b6000806040838503121561201757600080fd5b600061202585828601611f72565b925050602061203685828601611f9c565b9150509250929050565b60006020828403121561205257600080fd5b600061206084828501611f87565b91505092915050565b60006020828403121561207b57600080fd5b600061208984828501611f9c565b91505092915050565b600080600080608085870312156120a857600080fd5b60006120b687828801611f9c565b94505060206120c787828801611f72565b93505060406120d887828801611fb1565b92505060606120e987828801611fc6565b91505092959194509250565b60008060006060848603121561210a57600080fd5b600061211886828701611f9c565b935050602061212986828701611fc6565b925050604061213a86828701611fc6565b9150509250925092565b600061215083836123f9565b905092915050565b60006121648383612495565b905092915050565b6121758161285c565b82525050565b6121848161285c565b82525050565b600061219582612753565b61219f818561278e565b9350836020820285016121b185612733565b8060005b858110156121ed57848403895281516121ce8582612144565b94506121d983612774565b925060208a019950506001810190506121b5565b50829750879550505050505092915050565b600061220a8261275e565b612214818561279f565b93508360208202850161222685612743565b8060005b8581101561226257848403895281516122438582612158565b945061224e83612781565b925060208a0199505060018101905061222a565b50829750879550505050505092915050565b61227d8161286e565b82525050565b61228c816128c1565b82525050565b600061229d82612769565b6122a781856127b0565b93506122b78185602086016128e5565b6122c0816129a8565b840191505092915050565b60006122d682612769565b6122e081856127c1565b93506122f08185602086016128e5565b6122f9816129a8565b840191505092915050565b60006123116026836127c1565b915061231c826129b9565b604082019050919050565b60006123346019836127c1565b915061233f82612a08565b602082019050919050565b60006123576026836127c1565b915061236282612a31565b604082019050919050565b600061237a6014836127c1565b915061238582612a80565b602082019050919050565b600061239d6041836127c1565b91506123a882612aa9565b606082019050919050565b60006123c06020836127c1565b91506123cb82612b1e565b602082019050919050565b60006123e36017836127c1565b91506123ee82612b47565b602082019050919050565b600060e083016000830151612411600086018261250f565b506020830151612424602086018261250f565b506040830151612437604086018261252d565b50606083015161244a606086018261216c565b50608083015161245d6080860182612274565b5060a083015161247060a086018261216c565b5060c083015184820360c08601526124888282612292565b9150508091505092915050565b60006040830160008301516124ad600086018261216c565b50602083015184820360208601526124c5828261218a565b9150508091505092915050565b60006040830160008301516124ea600086018261216c565b5060208301518482036020860152612502828261218a565b9150508091505092915050565b6125188161289a565b82525050565b6125278161289a565b82525050565b612536816128a4565b82525050565b6000602082019050612551600083018461217b565b92915050565b600060408201905061256c600083018561217b565b612579602083018461251e565b9392505050565b6000602082019050818103600083015261259a81846121ff565b905092915050565b60006020820190506125b76000830184612283565b92915050565b600060208201905081810360008301526125d781846122cb565b905092915050565b600060208201905081810360008301526125f881612304565b9050919050565b6000602082019050818103600083015261261881612327565b9050919050565b600060208201905081810360008301526126388161234a565b9050919050565b600060208201905081810360008301526126588161236d565b9050919050565b6000602082019050818103600083015261267881612390565b9050919050565b60006020820190508181036000830152612698816123b3565b9050919050565b600060208201905081810360008301526126b8816123d6565b9050919050565b600060208201905081810360008301526126d981846124d2565b905092915050565b60006020820190506126f6600083018461251e565b92915050565b6000606082019050612711600083018661251e565b61271e602083018561251e565b61272b604083018461251e565b949350505050565b6000819050602082019050919050565b6000819050602082019050919050565b600081519050919050565b600081519050919050565b600081519050919050565b6000602082019050919050565b6000602082019050919050565b600082825260208201905092915050565b600082825260208201905092915050565b600082825260208201905092915050565b600082825260208201905092915050565b60006127dd8261289a565b91506127e88361289a565b9250827fffffffffffffffffffffffffffffffffffffffffffffffffffffffffffffffff0382111561281d5761281c61294a565b5b828201905092915050565b60006128338261289a565b915061283e8361289a565b9250828210156128515761285061294a565b5b828203905092915050565b60006128678261287a565b9050919050565b60008115159050919050565b600073ffffffffffffffffffffffffffffffffffffffff82169050919050565b6000819050919050565b600063ffffffff82169050919050565b600060ff82169050919050565b60006128cc826128d3565b9050919050565b60006128de8261287a565b9050919050565b60005b838110156129035780820151818401526020810190506128e8565b83811115612912576000848401525b50505050565b6000600282049050600182168061293057607f821691505b6020821081141561294457612943612979565b5b50919050565b7f4e487b7100000000000000000000000000000000000000000000000000000000600052601160045260246000fd5b7f4e487b7100000000000000000000000000000000000000000000000000000000600052602260045260246000fd5b6000601f19601f8301169050919050565b7f596f7520617265206e6f74207468652061646d696e206f662073656c6563746560008201527f6420706f6f6c0000000000000000000000000000000000000000000000000000602082015250565b7f4661696c656420746f207472616e7366657220746f6b656e7300000000000000600082015250565b7f4f776e61626c653a206e6577206f776e657220697320746865207a65726f206160008201527f6464726573730000000000000000000000000000000000000000000000000000602082015250565b7f54686973206973206e6f7420616e7920706f6f6c000000000000000000000000600082015250565b7f596f75722062616c616e6365206973206c6f776572207468616e20746865206160008201527f6d6f756e74206f6620746f6b656e7320796f752077616e7420746f207374616b60208201527f6500000000000000000000000000000000000000000000000000000000000000604082015250565b7f4f776e61626c653a2063616c6c6572206973206e6f7420746865206f776e6572600082015250565b7f43616e6e6f74205472616e73666572206e6f7468696e67000000000000000000600082015250565b612b798161285c565b8114612b8457600080fd5b50565b612b908161286e565b8114612b9b57600080fd5b50565b612ba78161289a565b8114612bb257600080fd5b50565b612bbe816128a4565b8114612bc957600080fd5b50565b612bd5816128b4565b8114612be057600080fd5b5056fea2646970667358221220e6d1fa939fcafd941fa6f7e5e5205cb0dbf8b1fbc22fe8d3624e92b884f72c7a64736f6c63430008030033",
  "immutableReferences": {},
  "source": "// SPDX-License-Identifier: MIT\npragma solidity ^0.8.3;\n\n// Openzeppelin Imports\n// import \"@openzeppelin/contracts-upgradeable/token/ERC20/IERC20Upgradeable.sol\";\nimport \"@openzeppelin/contracts/access/Ownable.sol\";\n\n// Local Imports\nimport \"./GSVToken.sol\";\n\ncontract GSVContract is Ownable {\n    // IERC20Upgradeable public token;\n    GSVToken public token;\n    string public name;\n    address adminWalletAddress;\n\n    // pools\n    uint public poolTotalSupply;\n\n    uint public poolOfEcosystem;\n    uint public poolOfCompanyReserve;\n    uint public poolOfTeam;\n    uint public poolOfBDAndPartnership;\n    uint public poolOfMarketing;\n    uint public poolOfLiquidityAndListing;\n    uint public poolOfSeedSale;\n    uint public poolOfPrivateSale;\n    uint public poolOfPublicSale;\n\n    address public firstPoolAdmin = 0xDF99f983073112a7e4D582cBf77c690d9ea7F39a;\n    address public secPoolAdmin = 0x3997d3AccEBad60EbAe81B2191F81f9055b3B420;\n    address public trdPoolAdmin = 0xD775Ee0a9Dd3298d4ecD5993BE56eA9Ab31909e6;\n\n    mapping(address => uint256) public stakes;\n\n    address[] public stakers;\n    Stakeholder[] public stakeholders;\n\n    event Staked(\n        address indexed user,\n        uint256 amount,\n        uint256 index,\n        uint256 timestamp\n    );\n\n    struct Stake {\n        uint256 amount;\n        uint256 since;\n        uint32 timeStaked;\n        address user;\n        bool claimable;\n        address poolAdminAddr;\n        string poolName;\n    }\n\n    struct S_liquidity {\n        uint256 amount;\n        uint256 sinse;\n    }\n\n    struct Stakeholder {\n        address user;\n        Stake[] address_stakes;\n    }\n\n    // constructor(IERC20Upgradeable _token, string memory _name) public {\n    constructor(\n        GSVToken _token,\n        string memory _name,\n        uint _tokenTotalSupply\n    ) public {\n        stakeholders.push();\n        token = _token;\n        name = _name;\n        poolTotalSupply = _tokenTotalSupply;\n        adminWalletAddress = msg.sender;\n        poolOfEcosystem = (_tokenTotalSupply * 40) / 100;\n        poolOfCompanyReserve = (_tokenTotalSupply * 10) / 100;\n        poolOfTeam = (_tokenTotalSupply * 5) / 100;\n        poolOfBDAndPartnership = (_tokenTotalSupply * 5) / 100;\n        poolOfMarketing = (_tokenTotalSupply * 5) / 100;\n        poolOfLiquidityAndListing = (_tokenTotalSupply * 15) / 100;\n        poolOfSeedSale = (_tokenTotalSupply * 10) / 100;\n        poolOfPrivateSale = (_tokenTotalSupply * 5) / 100;\n        poolOfPublicSale = (_tokenTotalSupply * 5) / 100;\n    }\n\n    function getBalance() external view returns (uint256) {\n        return address(this).balance;\n    }\n\n    function userHistoryOfFunds() external view returns (Stakeholder memory) {\n        uint256 index = stakes[msg.sender];\n        return stakeholders[index];\n    }\n\n    function exchangeHistoryOfFunds()\n        external\n        view\n        returns (Stakeholder[] memory)\n    {\n        return stakeholders;\n    }\n\n    function _checkAmountAndPoolName(\n        uint8 _whichPool\n    ) internal view returns (uint256, string memory) {\n        uint liqOfwhichPool;\n        string memory nameOfPool;\n\n        if (_whichPool == 1) {\n            liqOfwhichPool = poolOfEcosystem;\n            nameOfPool = \"Ecosystem\";\n        } else if (_whichPool == 2) {\n            liqOfwhichPool = poolOfCompanyReserve;\n            nameOfPool = \"CompanyReserve\";\n        } else if (_whichPool == 3) {\n            liqOfwhichPool = poolOfTeam;\n            nameOfPool = \"Team\";\n        } else if (_whichPool == 4) {\n            liqOfwhichPool = poolOfBDAndPartnership;\n            nameOfPool = \"BDAndPartnership\";\n        } else if (_whichPool == 5) {\n            liqOfwhichPool = poolOfMarketing;\n            nameOfPool = \"Marketing\";\n        } else if (_whichPool == 6) {\n            liqOfwhichPool = poolOfLiquidityAndListing;\n            nameOfPool = \"LiquidityAndListing\";\n        } else if (_whichPool == 7) {\n            liqOfwhichPool = poolOfSeedSale;\n            nameOfPool = \"SeedSale\";\n        } else if (_whichPool == 8) {\n            liqOfwhichPool = poolOfPrivateSale;\n            nameOfPool = \"PrivateSale\";\n        } else if (_whichPool == 9) {\n            liqOfwhichPool = poolOfPublicSale;\n            nameOfPool = \"PublicSale\";\n        } else {\n            liqOfwhichPool = 0;\n            nameOfPool = \"NoPool\";\n        }\n        return (liqOfwhichPool, nameOfPool);\n    }\n\n    function _handlingPoolAmount(\n        uint8 _whichPool,\n        uint liqOfwhichPool\n    ) internal {\n        if (_whichPool == 1) {\n            poolOfEcosystem = liqOfwhichPool;\n        } else if (_whichPool == 2) {\n            poolOfCompanyReserve = liqOfwhichPool;\n        } else if (_whichPool == 3) {\n            poolOfTeam = liqOfwhichPool;\n        } else if (_whichPool == 4) {\n            poolOfBDAndPartnership = liqOfwhichPool;\n        } else if (_whichPool == 5) {\n            poolOfMarketing = liqOfwhichPool;\n        } else if (_whichPool == 6) {\n            poolOfLiquidityAndListing = liqOfwhichPool;\n        } else if (_whichPool == 7) {\n            poolOfSeedSale = liqOfwhichPool;\n        } else if (_whichPool == 8) {\n            poolOfPrivateSale = liqOfwhichPool;\n        } else if (_whichPool == 9) {\n            poolOfPublicSale = liqOfwhichPool;\n        }\n    }\n\n    function _addFundholder(address staker) internal returns (uint256) {\n        stakeholders.push();\n        uint256 userIndex = stakeholders.length - 1;\n        stakeholders[userIndex].user = staker;\n        stakes[staker] = userIndex;\n        return userIndex;\n    }\n\n    function transferFunds(\n        uint256 _amount,\n        address _recipientAddress,\n        uint32 _timeStaked,\n        uint8 _whichPool\n    ) public {\n        // Check that the requested amount of tokens to sell is more than 0\n        require(_amount > 0, \"Cannot Transfer nothing\");\n\n        // address AdminAddrOfwhichPool;\n        uint liqOfwhichPool;\n        string memory nameOfPool;\n\n        (liqOfwhichPool, nameOfPool) = _checkAmountAndPoolName(_whichPool);\n\n        bool isAdminCalling;\n\n        if (msg.sender == firstPoolAdmin) {\n            isAdminCalling = true;\n        } else if (msg.sender == secPoolAdmin) {\n            isAdminCalling = true;\n        } else if (msg.sender == trdPoolAdmin) {\n            isAdminCalling = true;\n        } else {\n            isAdminCalling = false;\n        }\n\n        // Check that the msg.sender is the owner of that pool\n        require(\n            isAdminCalling == true,\n            \"You are not the admin of selected pool\"\n        );\n\n        // Check that the user's token balance is enough to do the swap\n        uint256 adminTokenBalance = liqOfwhichPool;\n        require(\n            adminTokenBalance >= _amount,\n            \"Your balance is lower than the amount of tokens you want to stake\"\n        );\n\n        uint256 index = stakes[msg.sender];\n        if (index == 0) {\n            index = _addFundholder(msg.sender);\n        }\n        liqOfwhichPool -= _amount;\n\n        // Deducting AMount from from pool\n        _handlingPoolAmount(_whichPool, liqOfwhichPool);\n\n        bool sent = token.transfer(_recipientAddress, _amount);\n        require(sent, \"Failed to transfer tokens\");\n\n        stakeholders[index].address_stakes.push(\n            Stake(\n                _amount,\n                block.timestamp,\n                _timeStaked,\n                _recipientAddress,\n                true,\n                msg.sender,\n                nameOfPool\n            )\n        );\n        emit Staked(msg.sender, _amount, index, block.timestamp);\n    }\n\n    function addLiquidyFromPoolToPool(\n        uint256 _amount,\n        uint8 _fromWhichPool,\n        uint8 _toWhichPool\n    ) public {\n        // Check that the requested amount of tokens to sell is more than 0\n        require(_amount > 0, \"Cannot Transfer nothing\");\n\n        uint liqOfwhichPoolFrom;\n        string memory nameOfPoolFrom;\n        (liqOfwhichPoolFrom, nameOfPoolFrom) = _checkAmountAndPoolName(\n            _fromWhichPool\n        );\n\n        uint liqOfwhichPoolTo;\n        string memory nameOfPoolTo;\n        (liqOfwhichPoolTo, nameOfPoolTo) = _checkAmountAndPoolName(\n            _toWhichPool\n        );\n\n        bool isAdminCalling;\n\n        if (\n            msg.sender == firstPoolAdmin ||\n            msg.sender == secPoolAdmin ||\n            msg.sender == trdPoolAdmin\n        ) {\n            isAdminCalling = true;\n        } else {\n            isAdminCalling = false;\n        }\n\n        // Check that the msg.sender is the owner of that pool\n        require(\n            isAdminCalling == true,\n            \"You are not the admin of selected pool\"\n        );\n\n        // Check that the user's token balance is enough to do the swap\n        require(\n            liqOfwhichPoolFrom >= _amount,\n            \"Your balance is lower than the amount of tokens you want to stake\"\n        );\n\n        //          data saving ************************************************\n        // uint256 index = stakes[msg.sender];\n        // if (index == 0) {\n        //     index = _addFundholder(msg.sender);\n        // }\n        //          data saving ************************************************\n        liqOfwhichPoolFrom -= _amount;\n        liqOfwhichPoolTo += _amount;\n\n        // Deducting AMount from from pool\n        _handlingPoolAmount(_fromWhichPool, liqOfwhichPoolFrom);\n        // Deducting AMount to to pool\n        _handlingPoolAmount(_toWhichPool, liqOfwhichPoolTo);\n\n        //          data saving ************************************************\n        // stakeholders[index].address_stakes.push(\n        //     Stake(\n        //         _amount,\n        //         block.timestamp,\n        //         _timeStaked,\n        //         _recipientAddress,\n        //         true,\n        //         msg.sender,\n        //         nameOfPoolFrom\n        //     )\n        // );\n        // emit Staked(msg.sender, _amount, index, block.timestamp);\n        //          data saving ************************************************\n    }\n\n    function changePoolAdmin(\n        address _newOwnerAddress,\n        uint _whichOwnerToChange\n    ) public {\n        bool isAdminCalling;\n\n        if (\n            msg.sender == firstPoolAdmin ||\n            msg.sender == secPoolAdmin ||\n            msg.sender == trdPoolAdmin\n        ) {\n            isAdminCalling = true;\n        } else {\n            isAdminCalling = false;\n        }\n\n        // Check that the msg.sender is the owner of that pool\n        require(\n            isAdminCalling == true,\n            \"You are not the admin of selected pool\"\n        );\n\n        if (_whichOwnerToChange == 1) {\n            firstPoolAdmin = _newOwnerAddress;\n        } else if (_whichOwnerToChange == 2) {\n            secPoolAdmin = _newOwnerAddress;\n        } else if (_whichOwnerToChange == 3) {\n            trdPoolAdmin = _newOwnerAddress;\n        } else {\n            require(_whichOwnerToChange != 1, \"This is not any pool\");\n        }\n    }\n}\n",
  "sourcePath": "/home/abdullah/Desktop/Ruskin_Felix_CONTRACT/Ruskin_Felix_CONTRACT/contracts/GSVContract.sol",
  "compiler": {
    "name": "solc",
    "version": "0.8.3+commit.8d00100c.Emscripten.clang"
  },
  "schemaVersion": "3.4.10",
  "updatedAt": "2023-04-28T09:33:17.245Z",
  "networkType": "ethereum",
  "devdoc": {
    "kind": "dev",
    "methods": {
      "owner()": {
        "details": "Returns the address of the current owner."
      },
      "renounceOwnership()": {
        "details": "Leaves the contract without owner. It will not be possible to call `onlyOwner` functions anymore. Can only be called by the current owner. NOTE: Renouncing ownership will leave the contract without an owner, thereby removing any functionality that is only available to the owner."
      },
      "transferOwnership(address)": {
        "details": "Transfers ownership of the contract to a new account (`newOwner`). Can only be called by the current owner."
      }
    },
    "version": 1
  },
  "userdoc": {
    "kind": "user",
    "methods": {},
    "version": 1
  }
}