{
  "contractName": "GSVMetaverse",
  "abi": [
    {
      "anonymous": false,
      "inputs": [
        {
          "indexed": true,
          "internalType": "address",
          "name": "previousOwner",
          "type": "address"
        },
        {
          "indexed": true,
          "internalType": "address",
          "name": "newOwner",
          "type": "address"
        }
      ],
      "name": "OwnershipTransferred",
      "type": "event"
    },
    {
      "anonymous": false,
      "inputs": [
        {
          "indexed": true,
          "internalType": "address",
          "name": "user",
          "type": "address"
        },
        {
          "indexed": false,
          "internalType": "uint256",
          "name": "amount",
          "type": "uint256"
        },
        {
          "indexed": false,
          "internalType": "uint256",
          "name": "index",
          "type": "uint256"
        },
        {
          "indexed": false,
          "internalType": "uint256",
          "name": "timestamp",
          "type": "uint256"
        }
      ],
      "name": "Staked",
      "type": "event"
    },
    {
      "inputs": [],
      "name": "firstPoolAdmin",
      "outputs": [
        {
          "internalType": "address",
          "name": "",
          "type": "address"
        }
      ],
      "stateMutability": "view",
      "type": "function",
      "constant": true
    },
    {
      "inputs": [],
      "name": "name",
      "outputs": [
        {
          "internalType": "string",
          "name": "",
          "type": "string"
        }
      ],
      "stateMutability": "view",
      "type": "function",
      "constant": true
    },
    {
      "inputs": [],
      "name": "owner",
      "outputs": [
        {
          "internalType": "address",
          "name": "",
          "type": "address"
        }
      ],
      "stateMutability": "view",
      "type": "function",
      "constant": true
    },
    {
      "inputs": [],
      "name": "poolOfBDAndPartnership",
      "outputs": [
        {
          "internalType": "uint256",
          "name": "",
          "type": "uint256"
        }
      ],
      "stateMutability": "view",
      "type": "function",
      "constant": true
    },
    {
      "inputs": [],
      "name": "poolOfCompanyReserve",
      "outputs": [
        {
          "internalType": "uint256",
          "name": "",
          "type": "uint256"
        }
      ],
      "stateMutability": "view",
      "type": "function",
      "constant": true
    },
    {
      "inputs": [],
      "name": "poolOfEcosystem",
      "outputs": [
        {
          "internalType": "uint256",
          "name": "",
          "type": "uint256"
        }
      ],
      "stateMutability": "view",
      "type": "function",
      "constant": true
    },
    {
      "inputs": [],
      "name": "poolOfLiquidityAndListing",
      "outputs": [
        {
          "internalType": "uint256",
          "name": "",
          "type": "uint256"
        }
      ],
      "stateMutability": "view",
      "type": "function",
      "constant": true
    },
    {
      "inputs": [],
      "name": "poolOfMarketing",
      "outputs": [
        {
          "internalType": "uint256",
          "name": "",
          "type": "uint256"
        }
      ],
      "stateMutability": "view",
      "type": "function",
      "constant": true
    },
    {
      "inputs": [],
      "name": "poolOfPrivateSale",
      "outputs": [
        {
          "internalType": "uint256",
          "name": "",
          "type": "uint256"
        }
      ],
      "stateMutability": "view",
      "type": "function",
      "constant": true
    },
    {
      "inputs": [],
      "name": "poolOfPublicSale",
      "outputs": [
        {
          "internalType": "uint256",
          "name": "",
          "type": "uint256"
        }
      ],
      "stateMutability": "view",
      "type": "function",
      "constant": true
    },
    {
      "inputs": [],
      "name": "poolOfSeedSale",
      "outputs": [
        {
          "internalType": "uint256",
          "name": "",
          "type": "uint256"
        }
      ],
      "stateMutability": "view",
      "type": "function",
      "constant": true
    },
    {
      "inputs": [],
      "name": "poolOfTeam",
      "outputs": [
        {
          "internalType": "uint256",
          "name": "",
          "type": "uint256"
        }
      ],
      "stateMutability": "view",
      "type": "function",
      "constant": true
    },
    {
      "inputs": [],
      "name": "poolTotalSupply",
      "outputs": [
        {
          "internalType": "uint256",
          "name": "",
          "type": "uint256"
        }
      ],
      "stateMutability": "view",
      "type": "function",
      "constant": true
    },
    {
      "inputs": [],
      "name": "renounceOwnership",
      "outputs": [],
      "stateMutability": "nonpayable",
      "type": "function"
    },
    {
      "inputs": [],
      "name": "secPoolAdmin",
      "outputs": [
        {
          "internalType": "address",
          "name": "",
          "type": "address"
        }
      ],
      "stateMutability": "view",
      "type": "function",
      "constant": true
    },
    {
      "inputs": [
        {
          "internalType": "uint256",
          "name": "",
          "type": "uint256"
        }
      ],
      "name": "stakeholders",
      "outputs": [
        {
          "internalType": "address",
          "name": "user",
          "type": "address"
        }
      ],
      "stateMutability": "view",
      "type": "function",
      "constant": true
    },
    {
      "inputs": [
        {
          "internalType": "uint256",
          "name": "",
          "type": "uint256"
        }
      ],
      "name": "stakers",
      "outputs": [
        {
          "internalType": "address",
          "name": "",
          "type": "address"
        }
      ],
      "stateMutability": "view",
      "type": "function",
      "constant": true
    },
    {
      "inputs": [
        {
          "internalType": "address",
          "name": "",
          "type": "address"
        }
      ],
      "name": "stakes",
      "outputs": [
        {
          "internalType": "uint256",
          "name": "",
          "type": "uint256"
        }
      ],
      "stateMutability": "view",
      "type": "function",
      "constant": true
    },
    {
      "inputs": [],
      "name": "token",
      "outputs": [
        {
          "internalType": "contract IERC20Upgradeable",
          "name": "",
          "type": "address"
        }
      ],
      "stateMutability": "view",
      "type": "function",
      "constant": true
    },
    {
      "inputs": [
        {
          "internalType": "address",
          "name": "newOwner",
          "type": "address"
        }
      ],
      "name": "transferOwnership",
      "outputs": [],
      "stateMutability": "nonpayable",
      "type": "function"
    },
    {
      "inputs": [],
      "name": "trdPoolAdmin",
      "outputs": [
        {
          "internalType": "address",
          "name": "",
          "type": "address"
        }
      ],
      "stateMutability": "view",
      "type": "function",
      "constant": true
    },
    {
      "inputs": [
        {
          "internalType": "contract IERC20Upgradeable",
          "name": "_token",
          "type": "address"
        },
        {
          "internalType": "string",
          "name": "_name",
          "type": "string"
        }
      ],
      "name": "storeConstructor",
      "outputs": [],
      "stateMutability": "nonpayable",
      "type": "function"
    },
    {
      "inputs": [],
      "name": "getBalance",
      "outputs": [
        {
          "internalType": "uint256",
          "name": "",
          "type": "uint256"
        }
      ],
      "stateMutability": "view",
      "type": "function",
      "constant": true
    },
    {
      "inputs": [],
      "name": "userHistoryOfFunds",
      "outputs": [
        {
          "components": [
            {
              "internalType": "address",
              "name": "user",
              "type": "address"
            },
            {
              "components": [
                {
                  "internalType": "uint256",
                  "name": "amount",
                  "type": "uint256"
                },
                {
                  "internalType": "uint256",
                  "name": "since",
                  "type": "uint256"
                },
                {
                  "internalType": "uint32",
                  "name": "timeStaked",
                  "type": "uint32"
                },
                {
                  "internalType": "address",
                  "name": "user",
                  "type": "address"
                },
                {
                  "internalType": "bool",
                  "name": "claimable",
                  "type": "bool"
                },
                {
                  "internalType": "address",
                  "name": "poolAdminAddr",
                  "type": "address"
                },
                {
                  "internalType": "string",
                  "name": "poolName",
                  "type": "string"
                }
              ],
              "internalType": "struct GSVMetaverse.Stake[]",
              "name": "address_stakes",
              "type": "tuple[]"
            }
          ],
          "internalType": "struct GSVMetaverse.Stakeholder",
          "name": "",
          "type": "tuple"
        }
      ],
      "stateMutability": "view",
      "type": "function",
      "constant": true
    },
    {
      "inputs": [],
      "name": "exchangeHistoryOfFunds",
      "outputs": [
        {
          "components": [
            {
              "internalType": "address",
              "name": "user",
              "type": "address"
            },
            {
              "components": [
                {
                  "internalType": "uint256",
                  "name": "amount",
                  "type": "uint256"
                },
                {
                  "internalType": "uint256",
                  "name": "since",
                  "type": "uint256"
                },
                {
                  "internalType": "uint32",
                  "name": "timeStaked",
                  "type": "uint32"
                },
                {
                  "internalType": "address",
                  "name": "user",
                  "type": "address"
                },
                {
                  "internalType": "bool",
                  "name": "claimable",
                  "type": "bool"
                },
                {
                  "internalType": "address",
                  "name": "poolAdminAddr",
                  "type": "address"
                },
                {
                  "internalType": "string",
                  "name": "poolName",
                  "type": "string"
                }
              ],
              "internalType": "struct GSVMetaverse.Stake[]",
              "name": "address_stakes",
              "type": "tuple[]"
            }
          ],
          "internalType": "struct GSVMetaverse.Stakeholder[]",
          "name": "",
          "type": "tuple[]"
        }
      ],
      "stateMutability": "view",
      "type": "function",
      "constant": true
    },
    {
      "inputs": [
        {
          "internalType": "uint256",
          "name": "_amount",
          "type": "uint256"
        },
        {
          "internalType": "address",
          "name": "_recipientAddress",
          "type": "address"
        },
        {
          "internalType": "uint32",
          "name": "_timeStaked",
          "type": "uint32"
        },
        {
          "internalType": "uint8",
          "name": "_whichPool",
          "type": "uint8"
        }
      ],
      "name": "transferFunds",
      "outputs": [],
      "stateMutability": "nonpayable",
      "type": "function"
    },
    {
      "inputs": [
        {
          "internalType": "uint256",
          "name": "_amount",
          "type": "uint256"
        },
        {
          "internalType": "uint8",
          "name": "_fromWhichPool",
          "type": "uint8"
        },
        {
          "internalType": "uint8",
          "name": "_toWhichPool",
          "type": "uint8"
        }
      ],
      "name": "addLiquidyFromPoolToPool",
      "outputs": [],
      "stateMutability": "nonpayable",
      "type": "function"
    }
  ],
  "bytecode": "0x608060405234801561001057600080fd5b50612e4c806100206000396000f3fe608060405234801561001057600080fd5b50600436106101a95760003560e01c80638da5cb5b116100f9578063d410ede211610097578063f934d84b11610071578063f934d84b14610468578063fc0c546a14610486578063fd5e6dd1146104a4578063fd996ec3146104d4576101a9565b8063d410ede214610410578063d7583a611461042e578063f2fde38b1461044c576101a9565b8063af14907d116100d3578063af14907d1461039c578063b2e35745146103ba578063b7f54092146103d6578063c0335881146103f4576101a9565b80638da5cb5b146103425780639f01189614610360578063aea012d81461037e576101a9565b80634a83c35a116101665780636f511ec8116101405780636f511ec8146102de578063715018a6146102fc5780637601e794146103065780637b3e2fbe14610324576101a9565b80634a83c35a14610284578063644ed83b146102a257806364f03249146102c0576101a9565b806306fdde03146101ae57806312065fe0146101cc57806316934fc4146101ea5780631d6b8b721461021a57806341bf4afc1461024a578063447d48c714610266575b600080fd5b6101b66104f2565b6040516101c39190612691565b60405180910390f35b6101d4610580565b6040516101e19190612795565b60405180910390f35b61020460048036038101906101ff91906120ba565b610588565b6040516102119190612795565b60405180910390f35b610234600480360381019061022f9190612160565b6105a0565b6040516102419190612610565b60405180910390f35b610264600480360381019061025f91906121ec565b6105ee565b005b61026e610835565b60405161027b9190612795565b60405180910390f35b61028c61083b565b6040516102999190612795565b60405180910390f35b6102aa610841565b6040516102b79190612795565b60405180910390f35b6102c8610847565b6040516102d59190612795565b60405180910390f35b6102e661084d565b6040516102f39190612795565b60405180910390f35b610304610853565b005b61030e6108db565b60405161031b9190612795565b60405180910390f35b61032c6108e1565b6040516103399190612654565b60405180910390f35b61034a610b88565b6040516103579190612610565b60405180910390f35b610368610bb2565b6040516103759190612610565b60405180910390f35b610386610bd8565b6040516103939190612773565b60405180910390f35b6103a4610ec5565b6040516103b19190612795565b60405180910390f35b6103d460048036038101906103cf9190612189565b610ecb565b005b6103de61147e565b6040516103eb9190612795565b60405180910390f35b61040e6004803603810190610409919061210c565b611484565b005b610418611779565b6040516104259190612795565b60405180910390f35b61043661177f565b6040516104439190612610565b60405180910390f35b610466600480360381019061046191906120ba565b6117a5565b005b61047061189d565b60405161047d9190612610565b60405180910390f35b61048e6118c3565b60405161049b9190612676565b60405180910390f35b6104be60048036038101906104b99190612160565b6118e9565b6040516104cb9190612610565b60405180910390f35b6104dc611928565b6040516104e99190612795565b60405180910390f35b606680546104ff90612ace565b80601f016020809104026020016040519081016040528092919081815260200182805461052b90612ace565b80156105785780601f1061054d57610100808354040283529160200191610578565b820191906000526020600020905b81548152906001019060200180831161055b57829003601f168201915b505050505081565b600047905090565b60756020528060005260406000206000915090505481565b607781815481106105b057600080fd5b90600052602060002090600202016000915090508060000160009054906101000a900473ffffffffffffffffffffffffffffffffffffffff16905081565b60008311610631576040517f08c379a000000000000000000000000000000000000000000000000000000000815260040161062890612753565b60405180910390fd5b6000606061063e8461192e565b8092508193505050600060606106538561192e565b80925081935050506000607260009054906101000a900473ffffffffffffffffffffffffffffffffffffffff1673ffffffffffffffffffffffffffffffffffffffff163373ffffffffffffffffffffffffffffffffffffffff1614806107065750607360009054906101000a900473ffffffffffffffffffffffffffffffffffffffff1673ffffffffffffffffffffffffffffffffffffffff163373ffffffffffffffffffffffffffffffffffffffff16145b8061075e5750607460009054906101000a900473ffffffffffffffffffffffffffffffffffffffff1673ffffffffffffffffffffffffffffffffffffffff163373ffffffffffffffffffffffffffffffffffffffff16145b1561076c5760019050610771565b600090505b60011515811515146107b8576040517f08c379a00000000000000000000000000000000000000000000000000000000081526004016107af906126b3565b60405180910390fd5b878510156107fb576040517f08c379a00000000000000000000000000000000000000000000000000000000081526004016107f290612713565b60405180910390fd5b878561080791906129bd565b9450878361081591906128dc565b92506108218786611c46565b61082b8684611c46565b5050505050505050565b60685481565b606e5481565b60695481565b606f5481565b606a5481565b61085b611d26565b73ffffffffffffffffffffffffffffffffffffffff16610879610b88565b73ffffffffffffffffffffffffffffffffffffffff16146108cf576040517f08c379a00000000000000000000000000000000000000000000000000000000081526004016108c690612733565b60405180910390fd5b6108d96000611d2e565b565b60715481565b60606077805480602002602001604051908101604052809291908181526020016000905b82821015610b7f57838290600052602060002090600202016040518060400160405290816000820160009054906101000a900473ffffffffffffffffffffffffffffffffffffffff1673ffffffffffffffffffffffffffffffffffffffff1673ffffffffffffffffffffffffffffffffffffffff16815260200160018201805480602002602001604051908101604052809291908181526020016000905b82821015610b6857838290600052602060002090600502016040518060e001604052908160008201548152602001600182015481526020016002820160009054906101000a900463ffffffff1663ffffffff1663ffffffff1681526020016002820160049054906101000a900473ffffffffffffffffffffffffffffffffffffffff1673ffffffffffffffffffffffffffffffffffffffff1673ffffffffffffffffffffffffffffffffffffffff1681526020016002820160189054906101000a900460ff161515151581526020016003820160009054906101000a900473ffffffffffffffffffffffffffffffffffffffff1673ffffffffffffffffffffffffffffffffffffffff1673ffffffffffffffffffffffffffffffffffffffff168152602001600482018054610ad790612ace565b80601f0160208091040260200160405190810160405280929190818152602001828054610b0390612ace565b8015610b505780601f10610b2557610100808354040283529160200191610b50565b820191906000526020600020905b815481529060010190602001808311610b3357829003601f168201915b505050505081525050815260200190600101906109a3565b505050508152505081526020019060010190610905565b50505050905090565b6000603360009054906101000a900473ffffffffffffffffffffffffffffffffffffffff16905090565b607260009054906101000a900473ffffffffffffffffffffffffffffffffffffffff1681565b610be0611f01565b6000607560003373ffffffffffffffffffffffffffffffffffffffff1673ffffffffffffffffffffffffffffffffffffffff16815260200190815260200160002054905060778181548110610c5e577f4e487b7100000000000000000000000000000000000000000000000000000000600052603260045260246000fd5b90600052602060002090600202016040518060400160405290816000820160009054906101000a900473ffffffffffffffffffffffffffffffffffffffff1673ffffffffffffffffffffffffffffffffffffffff1673ffffffffffffffffffffffffffffffffffffffff16815260200160018201805480602002602001604051908101604052809291908181526020016000905b82821015610eb757838290600052602060002090600502016040518060e001604052908160008201548152602001600182015481526020016002820160009054906101000a900463ffffffff1663ffffffff1663ffffffff1681526020016002820160049054906101000a900473ffffffffffffffffffffffffffffffffffffffff1673ffffffffffffffffffffffffffffffffffffffff1673ffffffffffffffffffffffffffffffffffffffff1681526020016002820160189054906101000a900460ff161515151581526020016003820160009054906101000a900473ffffffffffffffffffffffffffffffffffffffff1673ffffffffffffffffffffffffffffffffffffffff1673ffffffffffffffffffffffffffffffffffffffff168152602001600482018054610e2690612ace565b80601f0160208091040260200160405190810160405280929190818152602001828054610e5290612ace565b8015610e9f5780601f10610e7457610100808354040283529160200191610e9f565b820191906000526020600020905b815481529060010190602001808311610e8257829003601f168201915b50505050508152505081526020019060010190610cf2565b505050508152505091505090565b606c5481565b60008411610f0e576040517f08c379a0000000000000000000000000000000000000000000000000000000008152600401610f0590612753565b60405180910390fd5b60006060610f1b8361192e565b80925081935050506000607260009054906101000a900473ffffffffffffffffffffffffffffffffffffffff1673ffffffffffffffffffffffffffffffffffffffff163373ffffffffffffffffffffffffffffffffffffffff161415610f845760019050611049565b607360009054906101000a900473ffffffffffffffffffffffffffffffffffffffff1673ffffffffffffffffffffffffffffffffffffffff163373ffffffffffffffffffffffffffffffffffffffff161415610fe35760019050611048565b607460009054906101000a900473ffffffffffffffffffffffffffffffffffffffff1673ffffffffffffffffffffffffffffffffffffffff163373ffffffffffffffffffffffffffffffffffffffff1614156110425760019050611047565b600090505b5b5b6001151581151514611090576040517f08c379a0000000000000000000000000000000000000000000000000000000008152600401611087906126b3565b60405180910390fd5b6000839050878110156110d8576040517f08c379a00000000000000000000000000000000000000000000000000000000081526004016110cf90612713565b60405180910390fd5b6000607560003373ffffffffffffffffffffffffffffffffffffffff1673ffffffffffffffffffffffffffffffffffffffff16815260200190815260200160002054905060008114156111315761112e33611df4565b90505b888561113d91906129bd565b94506111498686611c46565b6000606560009054906101000a900473ffffffffffffffffffffffffffffffffffffffff1673ffffffffffffffffffffffffffffffffffffffff1663a9059cbb8a8c6040518363ffffffff1660e01b81526004016111a892919061262b565b602060405180830381600087803b1580156111c257600080fd5b505af11580156111d6573d6000803e3d6000fd5b505050506040513d601f19601f820116820180604052508101906111fa91906120e3565b90508061123c576040517f08c379a0000000000000000000000000000000000000000000000000000000008152600401611233906126d3565b60405180910390fd5b60778281548110611276577f4e487b7100000000000000000000000000000000000000000000000000000000600052603260045260246000fd5b90600052602060002090600202016001016040518060e001604052808c81526020014281526020018a63ffffffff1681526020018b73ffffffffffffffffffffffffffffffffffffffff1681526020016001151581526020013373ffffffffffffffffffffffffffffffffffffffff168152602001878152509080600181540180825580915050600190039060005260206000209060050201600090919091909150600082015181600001556020820151816001015560408201518160020160006101000a81548163ffffffff021916908363ffffffff16021790555060608201518160020160046101000a81548173ffffffffffffffffffffffffffffffffffffffff021916908373ffffffffffffffffffffffffffffffffffffffff16021790555060808201518160020160186101000a81548160ff02191690831515021790555060a08201518160030160006101000a81548173ffffffffffffffffffffffffffffffffffffffff021916908373ffffffffffffffffffffffffffffffffffffffff16021790555060c082015181600401908051906020019061141d929190611f31565b5050503373ffffffffffffffffffffffffffffffffffffffff167fb4caaf29adda3eefee3ad552a8e85058589bf834c7466cae4ee58787f70589ed8b844260405161146a939291906127b0565b60405180910390a250505050505050505050565b60705481565b60776001816001815401808255809150500390600052602060002090505081606560006101000a81548173ffffffffffffffffffffffffffffffffffffffff021916908373ffffffffffffffffffffffffffffffffffffffff16021790555080606690805190602001906114f9929190611f31565b506a73ce27351811f40c00000060688190555033606760006101000a81548173ffffffffffffffffffffffffffffffffffffffff021916908373ffffffffffffffffffffffffffffffffffffffff1602179055506064602860685461155e9190612963565b6115689190612932565b6069819055506064600a60685461157f9190612963565b6115899190612932565b606a81905550606460056068546115a09190612963565b6115aa9190612932565b606b81905550606460056068546115c19190612963565b6115cb9190612932565b606c81905550606460056068546115e29190612963565b6115ec9190612932565b606d819055506064600f6068546116039190612963565b61160d9190612932565b606e819055506064600a6068546116249190612963565b61162e9190612932565b606f81905550606460056068546116459190612963565b61164f9190612932565b607081905550606460056068546116669190612963565b6116709190612932565b607181905550730557511adb67ee425e398c207e00cf6f031792f9607260006101000a81548173ffffffffffffffffffffffffffffffffffffffff021916908373ffffffffffffffffffffffffffffffffffffffff160217905550737c405b6b8bca187440419011712a0f4c057a979a607360006101000a81548173ffffffffffffffffffffffffffffffffffffffff021916908373ffffffffffffffffffffffffffffffffffffffff1602179055507301c1529677d361549fd5c96f8b4e43c554d63edb607460006101000a81548173ffffffffffffffffffffffffffffffffffffffff021916908373ffffffffffffffffffffffffffffffffffffffff1602179055505050565b606d5481565b607460009054906101000a900473ffffffffffffffffffffffffffffffffffffffff1681565b6117ad611d26565b73ffffffffffffffffffffffffffffffffffffffff166117cb610b88565b73ffffffffffffffffffffffffffffffffffffffff1614611821576040517f08c379a000000000000000000000000000000000000000000000000000000000815260040161181890612733565b60405180910390fd5b600073ffffffffffffffffffffffffffffffffffffffff168173ffffffffffffffffffffffffffffffffffffffff161415611891576040517f08c379a0000000000000000000000000000000000000000000000000000000008152600401611888906126f3565b60405180910390fd5b61189a81611d2e565b50565b607360009054906101000a900473ffffffffffffffffffffffffffffffffffffffff1681565b606560009054906101000a900473ffffffffffffffffffffffffffffffffffffffff1681565b607681815481106118f957600080fd5b906000526020600020016000915054906101000a900473ffffffffffffffffffffffffffffffffffffffff1681565b606b5481565b600060606000606060018560ff1614156119845760695491506040518060400160405280600981526020017f45636f73797374656d00000000000000000000000000000000000000000000008152509050611c39565b60028560ff1614156119d257606a5491506040518060400160405280600e81526020017f436f6d70616e79526573657276650000000000000000000000000000000000008152509050611c38565b60038560ff161415611a2057606b5491506040518060400160405280600481526020017f5465616d000000000000000000000000000000000000000000000000000000008152509050611c37565b60048560ff161415611a6e57606c5491506040518060400160405280601081526020017f4244416e64506172746e657273686970000000000000000000000000000000008152509050611c36565b60058560ff161415611abc57606d5491506040518060400160405280600981526020017f4d61726b6574696e6700000000000000000000000000000000000000000000008152509050611c35565b60068560ff161415611b0a57606e5491506040518060400160405280601381526020017f4c6971756964697479416e644c697374696e67000000000000000000000000008152509050611c34565b60078560ff161415611b5857606f5491506040518060400160405280600881526020017f5365656453616c650000000000000000000000000000000000000000000000008152509050611c33565b60088560ff161415611ba65760705491506040518060400160405280600b81526020017f5072697661746553616c650000000000000000000000000000000000000000008152509050611c32565b60098560ff161415611bf45760715491506040518060400160405280600a81526020017f5075626c696353616c65000000000000000000000000000000000000000000008152509050611c31565b600091506040518060400160405280600681526020017f4e6f506f6f6c000000000000000000000000000000000000000000000000000081525090505b5b5b5b5b5b5b5b5b8181935093505050915091565b60018260ff161415611c5e5780606981905550611d22565b60028260ff161415611c765780606a81905550611d21565b60038260ff161415611c8e5780606b81905550611d20565b60048260ff161415611ca65780606c81905550611d1f565b60058260ff161415611cbe5780606d81905550611d1e565b60068260ff161415611cd65780606e81905550611d1d565b60078260ff161415611cee5780606f81905550611d1c565b60088260ff161415611d065780607081905550611d1b565b60098260ff161415611d1a57806071819055505b5b5b5b5b5b5b5b5b5050565b600033905090565b6000603360009054906101000a900473ffffffffffffffffffffffffffffffffffffffff16905081603360006101000a81548173ffffffffffffffffffffffffffffffffffffffff021916908373ffffffffffffffffffffffffffffffffffffffff1602179055508173ffffffffffffffffffffffffffffffffffffffff168173ffffffffffffffffffffffffffffffffffffffff167f8be0079c531659141344cd1fd0a4f28419497f9722a3daafe3b4186f6b6457e060405160405180910390a35050565b600060776001816001815401808255809150500390600052602060002090505060006001607780549050611e2891906129bd565b90508260778281548110611e65577f4e487b7100000000000000000000000000000000000000000000000000000000600052603260045260246000fd5b906000526020600020906002020160000160006101000a81548173ffffffffffffffffffffffffffffffffffffffff021916908373ffffffffffffffffffffffffffffffffffffffff16021790555080607560008573ffffffffffffffffffffffffffffffffffffffff1673ffffffffffffffffffffffffffffffffffffffff1681526020019081526020016000208190555080915050919050565b6040518060400160405280600073ffffffffffffffffffffffffffffffffffffffff168152602001606081525090565b828054611f3d90612ace565b90600052602060002090601f016020900481019282611f5f5760008555611fa6565b82601f10611f7857805160ff1916838001178555611fa6565b82800160010185558215611fa6579182015b82811115611fa5578251825591602001919060010190611f8a565b5b509050611fb39190611fb7565b5090565b5b80821115611fd0576000816000905550600101611fb8565b5090565b6000611fe7611fe28461280c565b6127e7565b905082815260208101848484011115611fff57600080fd5b61200a848285612a8c565b509392505050565b60008135905061202181612d8c565b92915050565b60008151905061203681612da3565b92915050565b60008135905061204b81612dba565b92915050565b600082601f83011261206257600080fd5b8135612072848260208601611fd4565b91505092915050565b60008135905061208a81612dd1565b92915050565b60008135905061209f81612de8565b92915050565b6000813590506120b481612dff565b92915050565b6000602082840312156120cc57600080fd5b60006120da84828501612012565b91505092915050565b6000602082840312156120f557600080fd5b600061210384828501612027565b91505092915050565b6000806040838503121561211f57600080fd5b600061212d8582860161203c565b925050602083013567ffffffffffffffff81111561214a57600080fd5b61215685828601612051565b9150509250929050565b60006020828403121561217257600080fd5b60006121808482850161207b565b91505092915050565b6000806000806080858703121561219f57600080fd5b60006121ad8782880161207b565b94505060206121be87828801612012565b93505060406121cf87828801612090565b92505060606121e0878288016120a5565b91505092959194509250565b60008060006060848603121561220157600080fd5b600061220f8682870161207b565b9350506020612220868287016120a5565b9250506040612231868287016120a5565b9150509250925092565b600061224783836124cd565b905092915050565b600061225b8383612569565b905092915050565b61226c816129f1565b82525050565b61227b816129f1565b82525050565b600061228c8261285d565b6122968185612898565b9350836020820285016122a88561283d565b8060005b858110156122e457848403895281516122c5858261223b565b94506122d08361287e565b925060208a019950506001810190506122ac565b50829750879550505050505092915050565b600061230182612868565b61230b81856128a9565b93508360208202850161231d8561284d565b8060005b85811015612359578484038952815161233a858261224f565b94506123458361288b565b925060208a01995050600181019050612321565b50829750879550505050505092915050565b61237481612a03565b82525050565b61238381612a68565b82525050565b600061239482612873565b61239e81856128ba565b93506123ae818560208601612a9b565b6123b781612bed565b840191505092915050565b60006123cd82612873565b6123d781856128cb565b93506123e7818560208601612a9b565b6123f081612bed565b840191505092915050565b60006124086026836128cb565b915061241382612bfe565b604082019050919050565b600061242b6019836128cb565b915061243682612c4d565b602082019050919050565b600061244e6026836128cb565b915061245982612c76565b604082019050919050565b60006124716041836128cb565b915061247c82612cc5565b606082019050919050565b60006124946020836128cb565b915061249f82612d3a565b602082019050919050565b60006124b76017836128cb565b91506124c282612d63565b602082019050919050565b600060e0830160008301516124e560008601826125e3565b5060208301516124f860208601826125e3565b50604083015161250b6040860182612601565b50606083015161251e6060860182612263565b506080830151612531608086018261236b565b5060a083015161254460a0860182612263565b5060c083015184820360c086015261255c8282612389565b9150508091505092915050565b60006040830160008301516125816000860182612263565b50602083015184820360208601526125998282612281565b9150508091505092915050565b60006040830160008301516125be6000860182612263565b50602083015184820360208601526125d68282612281565b9150508091505092915050565b6125ec81612a41565b82525050565b6125fb81612a41565b82525050565b61260a81612a4b565b82525050565b60006020820190506126256000830184612272565b92915050565b60006040820190506126406000830185612272565b61264d60208301846125f2565b9392505050565b6000602082019050818103600083015261266e81846122f6565b905092915050565b600060208201905061268b600083018461237a565b92915050565b600060208201905081810360008301526126ab81846123c2565b905092915050565b600060208201905081810360008301526126cc816123fb565b9050919050565b600060208201905081810360008301526126ec8161241e565b9050919050565b6000602082019050818103600083015261270c81612441565b9050919050565b6000602082019050818103600083015261272c81612464565b9050919050565b6000602082019050818103600083015261274c81612487565b9050919050565b6000602082019050818103600083015261276c816124aa565b9050919050565b6000602082019050818103600083015261278d81846125a6565b905092915050565b60006020820190506127aa60008301846125f2565b92915050565b60006060820190506127c560008301866125f2565b6127d260208301856125f2565b6127df60408301846125f2565b949350505050565b60006127f1612802565b90506127fd8282612b00565b919050565b6000604051905090565b600067ffffffffffffffff82111561282757612826612bbe565b5b61283082612bed565b9050602081019050919050565b6000819050602082019050919050565b6000819050602082019050919050565b600081519050919050565b600081519050919050565b600081519050919050565b6000602082019050919050565b6000602082019050919050565b600082825260208201905092915050565b600082825260208201905092915050565b600082825260208201905092915050565b600082825260208201905092915050565b60006128e782612a41565b91506128f283612a41565b9250827fffffffffffffffffffffffffffffffffffffffffffffffffffffffffffffffff0382111561292757612926612b31565b5b828201905092915050565b600061293d82612a41565b915061294883612a41565b92508261295857612957612b60565b5b828204905092915050565b600061296e82612a41565b915061297983612a41565b9250817fffffffffffffffffffffffffffffffffffffffffffffffffffffffffffffffff04831182151516156129b2576129b1612b31565b5b828202905092915050565b60006129c882612a41565b91506129d383612a41565b9250828210156129e6576129e5612b31565b5b828203905092915050565b60006129fc82612a21565b9050919050565b60008115159050919050565b6000612a1a826129f1565b9050919050565b600073ffffffffffffffffffffffffffffffffffffffff82169050919050565b6000819050919050565b600063ffffffff82169050919050565b600060ff82169050919050565b6000612a7382612a7a565b9050919050565b6000612a8582612a21565b9050919050565b82818337600083830152505050565b60005b83811015612ab9578082015181840152602081019050612a9e565b83811115612ac8576000848401525b50505050565b60006002820490506001821680612ae657607f821691505b60208210811415612afa57612af9612b8f565b5b50919050565b612b0982612bed565b810181811067ffffffffffffffff82111715612b2857612b27612bbe565b5b80604052505050565b7f4e487b7100000000000000000000000000000000000000000000000000000000600052601160045260246000fd5b7f4e487b7100000000000000000000000000000000000000000000000000000000600052601260045260246000fd5b7f4e487b7100000000000000000000000000000000000000000000000000000000600052602260045260246000fd5b7f4e487b7100000000000000000000000000000000000000000000000000000000600052604160045260246000fd5b6000601f19601f8301169050919050565b7f596f7520617265206e6f74207468652061646d696e206f662073656c6563746560008201527f6420706f6f6c0000000000000000000000000000000000000000000000000000602082015250565b7f4661696c656420746f207472616e7366657220746f6b656e7300000000000000600082015250565b7f4f776e61626c653a206e6577206f776e657220697320746865207a65726f206160008201527f6464726573730000000000000000000000000000000000000000000000000000602082015250565b7f596f75722062616c616e6365206973206c6f776572207468616e20746865206160008201527f6d6f756e74206f6620746f6b656e7320796f752077616e7420746f207374616b60208201527f6500000000000000000000000000000000000000000000000000000000000000604082015250565b7f4f776e61626c653a2063616c6c6572206973206e6f7420746865206f776e6572600082015250565b7f43616e6e6f74205472616e73666572206e6f7468696e67000000000000000000600082015250565b612d95816129f1565b8114612da057600080fd5b50565b612dac81612a03565b8114612db757600080fd5b50565b612dc381612a0f565b8114612dce57600080fd5b50565b612dda81612a41565b8114612de557600080fd5b50565b612df181612a4b565b8114612dfc57600080fd5b50565b612e0881612a5b565b8114612e1357600080fd5b5056fea26469706673582212201e20bdb508d545bd2c9d1d383c973504b192c1c0c91f54b5cd8c01a433899ea564736f6c63430008030033",
  "immutableReferences": {},
  "source": "// SPDX-License-Identifier: MIT\npragma solidity ^0.8.3;\n\n// Openzeppelin Imports\nimport \"@openzeppelin/contracts-upgradeable/access/OwnableUpgradeable.sol\";\nimport \"@openzeppelin/contracts-upgradeable/token/ERC20/IERC20Upgradeable.sol\";\n\ncontract GSVMetaverse is OwnableUpgradeable {\n    IERC20Upgradeable public token;\n    string public name;\n    address adminWalletAddress;\n\n    // pools\n    uint public poolTotalSupply;\n\n    uint public poolOfEcosystem;\n    uint public poolOfCompanyReserve;\n    uint public poolOfTeam;\n    uint public poolOfBDAndPartnership;\n    uint public poolOfMarketing;\n    uint public poolOfLiquidityAndListing;\n    uint public poolOfSeedSale;\n    uint public poolOfPrivateSale;\n    uint public poolOfPublicSale;\n\n    address public firstPoolAdmin;\n    address public secPoolAdmin;\n    address public trdPoolAdmin;\n\n    mapping(address => uint256) public stakes;\n\n    address[] public stakers;\n    Stakeholder[] public stakeholders;\n\n    event Staked(\n        address indexed user,\n        uint256 amount,\n        uint256 index,\n        uint256 timestamp\n    );\n\n    struct Stake {\n        uint256 amount;\n        uint256 since;\n        uint32 timeStaked;\n        address user;\n        bool claimable;\n        address poolAdminAddr;\n        string poolName;\n    }\n\n    struct S_liquidity {\n        uint256 amount;\n        uint256 sinse;\n    }\n\n    struct Stakeholder {\n        address user;\n        Stake[] address_stakes;\n    }\n\n    function storeConstructor(\n        IERC20Upgradeable _token,\n        string memory _name\n    ) public {\n        stakeholders.push();\n        token = _token;\n        name = _name;\n        poolTotalSupply = 140000000000000000000000000;\n        adminWalletAddress = msg.sender;\n        poolOfEcosystem = (poolTotalSupply * 40) / 100;\n        poolOfCompanyReserve = (poolTotalSupply * 10) / 100;\n        poolOfTeam = (poolTotalSupply * 5) / 100;\n        poolOfBDAndPartnership = (poolTotalSupply * 5) / 100;\n        poolOfMarketing = (poolTotalSupply * 5) / 100;\n        poolOfLiquidityAndListing = (poolTotalSupply * 15) / 100;\n        poolOfSeedSale = (poolTotalSupply * 10) / 100;\n        poolOfPrivateSale = (poolTotalSupply * 5) / 100;\n        poolOfPublicSale = (poolTotalSupply * 5) / 100;\n\n        // Initializing the Pool Owners\n        firstPoolAdmin = 0x0557511aDB67Ee425E398C207e00CF6F031792F9;\n        secPoolAdmin = 0x7c405b6b8Bca187440419011712A0f4c057a979a;\n        trdPoolAdmin = 0x01c1529677D361549FD5c96F8B4E43C554D63Edb;\n    }\n\n    function getBalance() external view returns (uint256) {\n        return address(this).balance;\n    }\n\n    function userHistoryOfFunds() external view returns (Stakeholder memory) {\n        uint256 index = stakes[msg.sender];\n        return stakeholders[index];\n    }\n\n    function exchangeHistoryOfFunds()\n        external\n        view\n        returns (Stakeholder[] memory)\n    {\n        return stakeholders;\n    }\n\n    function _checkAmountAndPoolName(\n        uint8 _whichPool\n    ) internal view returns (uint256, string memory) {\n        uint liqOfwhichPool;\n        string memory nameOfPool;\n\n        if (_whichPool == 1) {\n            liqOfwhichPool = poolOfEcosystem;\n            nameOfPool = \"Ecosystem\";\n        } else if (_whichPool == 2) {\n            liqOfwhichPool = poolOfCompanyReserve;\n            nameOfPool = \"CompanyReserve\";\n        } else if (_whichPool == 3) {\n            liqOfwhichPool = poolOfTeam;\n            nameOfPool = \"Team\";\n        } else if (_whichPool == 4) {\n            liqOfwhichPool = poolOfBDAndPartnership;\n            nameOfPool = \"BDAndPartnership\";\n        } else if (_whichPool == 5) {\n            liqOfwhichPool = poolOfMarketing;\n            nameOfPool = \"Marketing\";\n        } else if (_whichPool == 6) {\n            liqOfwhichPool = poolOfLiquidityAndListing;\n            nameOfPool = \"LiquidityAndListing\";\n        } else if (_whichPool == 7) {\n            liqOfwhichPool = poolOfSeedSale;\n            nameOfPool = \"SeedSale\";\n        } else if (_whichPool == 8) {\n            liqOfwhichPool = poolOfPrivateSale;\n            nameOfPool = \"PrivateSale\";\n        } else if (_whichPool == 9) {\n            liqOfwhichPool = poolOfPublicSale;\n            nameOfPool = \"PublicSale\";\n        } else {\n            liqOfwhichPool = 0;\n            nameOfPool = \"NoPool\";\n        }\n        return (liqOfwhichPool, nameOfPool);\n    }\n\n    function _handlingPoolAmount(\n        uint8 _whichPool,\n        uint liqOfwhichPool\n    ) internal {\n        if (_whichPool == 1) {\n            poolOfEcosystem = liqOfwhichPool;\n        } else if (_whichPool == 2) {\n            poolOfCompanyReserve = liqOfwhichPool;\n        } else if (_whichPool == 3) {\n            poolOfTeam = liqOfwhichPool;\n        } else if (_whichPool == 4) {\n            poolOfBDAndPartnership = liqOfwhichPool;\n        } else if (_whichPool == 5) {\n            poolOfMarketing = liqOfwhichPool;\n        } else if (_whichPool == 6) {\n            poolOfLiquidityAndListing = liqOfwhichPool;\n        } else if (_whichPool == 7) {\n            poolOfSeedSale = liqOfwhichPool;\n        } else if (_whichPool == 8) {\n            poolOfPrivateSale = liqOfwhichPool;\n        } else if (_whichPool == 9) {\n            poolOfPublicSale = liqOfwhichPool;\n        }\n    }\n\n    function _addFundholder(address staker) internal returns (uint256) {\n        stakeholders.push();\n        uint256 userIndex = stakeholders.length - 1;\n        stakeholders[userIndex].user = staker;\n        stakes[staker] = userIndex;\n        return userIndex;\n    }\n\n    function transferFunds(\n        uint256 _amount,\n        address _recipientAddress,\n        uint32 _timeStaked,\n        uint8 _whichPool\n    ) public {\n        // Check that the requested amount of tokens to sell is more than 0\n        require(_amount > 0, \"Cannot Transfer nothing\");\n\n        // address AdminAddrOfwhichPool;\n        uint liqOfwhichPool;\n        string memory nameOfPool;\n\n        (liqOfwhichPool, nameOfPool) = _checkAmountAndPoolName(_whichPool);\n\n        bool isAdminCalling;\n\n        if (msg.sender == firstPoolAdmin) {\n            isAdminCalling = true;\n        } else if (msg.sender == secPoolAdmin) {\n            isAdminCalling = true;\n        } else if (msg.sender == trdPoolAdmin) {\n            isAdminCalling = true;\n        } else {\n            isAdminCalling = false;\n        }\n\n        // Check that the msg.sender is the owner of that pool\n        require(\n            isAdminCalling == true,\n            \"You are not the admin of selected pool\"\n        );\n\n        // Check that the user's token balance is enough to do the swap\n        uint256 adminTokenBalance = liqOfwhichPool;\n        require(\n            adminTokenBalance >= _amount,\n            \"Your balance is lower than the amount of tokens you want to stake\"\n        );\n\n        uint256 index = stakes[msg.sender];\n        if (index == 0) {\n            index = _addFundholder(msg.sender);\n        }\n        liqOfwhichPool -= _amount;\n\n        // Deducting AMount from from pool\n        _handlingPoolAmount(_whichPool, liqOfwhichPool);\n\n        bool sent = token.transfer(_recipientAddress, _amount);\n        require(sent, \"Failed to transfer tokens\");\n\n        stakeholders[index].address_stakes.push(\n            Stake(\n                _amount,\n                block.timestamp,\n                _timeStaked,\n                _recipientAddress,\n                true,\n                msg.sender,\n                nameOfPool\n            )\n        );\n        emit Staked(msg.sender, _amount, index, block.timestamp);\n    }\n\n    function addLiquidyFromPoolToPool(\n        uint256 _amount,\n        uint8 _fromWhichPool,\n        uint8 _toWhichPool\n    ) public {\n        // Check that the requested amount of tokens to sell is more than 0\n        require(_amount > 0, \"Cannot Transfer nothing\");\n\n        uint liqOfwhichPoolFrom;\n        string memory nameOfPoolFrom;\n        (liqOfwhichPoolFrom, nameOfPoolFrom) = _checkAmountAndPoolName(\n            _fromWhichPool\n        );\n\n        uint liqOfwhichPoolTo;\n        string memory nameOfPoolTo;\n        (liqOfwhichPoolTo, nameOfPoolTo) = _checkAmountAndPoolName(\n            _toWhichPool\n        );\n\n        bool isAdminCalling;\n\n        if (\n            msg.sender == firstPoolAdmin ||\n            msg.sender == secPoolAdmin ||\n            msg.sender == trdPoolAdmin\n        ) {\n            isAdminCalling = true;\n        } else {\n            isAdminCalling = false;\n        }\n\n        // Check that the msg.sender is the owner of that pool\n        require(\n            isAdminCalling == true,\n            \"You are not the admin of selected pool\"\n        );\n\n        // Check that the user's token balance is enough to do the swap\n        require(\n            liqOfwhichPoolFrom >= _amount,\n            \"Your balance is lower than the amount of tokens you want to stake\"\n        );\n        \n        liqOfwhichPoolFrom -= _amount;\n        liqOfwhichPoolTo += _amount;\n\n        // Deducting AMount from from pool\n        _handlingPoolAmount(_fromWhichPool, liqOfwhichPoolFrom);\n        // Deducting AMount to to pool\n        _handlingPoolAmount(_toWhichPool, liqOfwhichPoolTo);\n    }\n}\n",
  "sourcePath": "C:\\Users\\ruski\\OneDrive\\Desktop\\GSV_Metaverse_SMC-main - Copy\\contracts\\GSVMetaverse.sol",
  "compiler": {
    "name": "solc",
    "version": "0.8.3+commit.8d00100c.Emscripten.clang"
  },
  "schemaVersion": "3.4.13",
  "updatedAt": "2023-04-29T17:57:27.116Z",
  "networkType": "ethereum",
  "devdoc": {
    "kind": "dev",
    "methods": {
      "owner()": {
        "details": "Returns the address of the current owner."
      },
      "renounceOwnership()": {
        "details": "Leaves the contract without owner. It will not be possible to call `onlyOwner` functions anymore. Can only be called by the current owner. NOTE: Renouncing ownership will leave the contract without an owner, thereby removing any functionality that is only available to the owner."
      },
      "transferOwnership(address)": {
        "details": "Transfers ownership of the contract to a new account (`newOwner`). Can only be called by the current owner."
      }
    },
    "version": 1
  },
  "userdoc": {
    "kind": "user",
    "methods": {},
    "version": 1
  }
}